{
  "_format": "hh-sol-artifact-1",
  "contractName": "Review",
  "sourceName": "contracts/Crowdoe.sol",
  "abi": [
    {
      "inputs": [
        {
          "internalType": "address",
          "name": "_tokenAddress",
          "type": "address"
        }
      ],
      "stateMutability": "nonpayable",
      "type": "constructor"
    },
    {
      "inputs": [
        {
          "internalType": "address",
          "name": "owner",
          "type": "address"
        }
      ],
      "name": "OwnableInvalidOwner",
      "type": "error"
    },
    {
      "inputs": [
        {
          "internalType": "address",
          "name": "account",
          "type": "address"
        }
      ],
      "name": "OwnableUnauthorizedAccount",
      "type": "error"
    },
    {
      "anonymous": false,
      "inputs": [
        {
          "indexed": true,
          "internalType": "address",
          "name": "previousOwner",
          "type": "address"
        },
        {
          "indexed": true,
          "internalType": "address",
          "name": "newOwner",
          "type": "address"
        }
      ],
      "name": "OwnershipTransferred",
      "type": "event"
    },
    {
      "anonymous": false,
      "inputs": [
        {
          "indexed": true,
          "internalType": "address",
          "name": "reviewer",
          "type": "address"
        },
        {
          "indexed": false,
          "internalType": "string",
          "name": "review",
          "type": "string"
        },
        {
          "indexed": false,
          "internalType": "uint256",
          "name": "tokensEarned",
          "type": "uint256"
        }
      ],
      "name": "ReviewSubmitted",
      "type": "event"
    },
    {
      "inputs": [],
      "name": "owner",
      "outputs": [
        {
          "internalType": "address",
          "name": "",
          "type": "address"
        }
      ],
      "stateMutability": "view",
      "type": "function"
    },
    {
      "inputs": [],
      "name": "renounceOwnership",
      "outputs": [],
      "stateMutability": "nonpayable",
      "type": "function"
    },
    {
      "inputs": [
        {
          "internalType": "string",
          "name": "_ipfsHash",
          "type": "string"
        }
      ],
      "name": "submitReviewWithIPFS",
      "outputs": [],
      "stateMutability": "nonpayable",
      "type": "function"
    },
    {
      "inputs": [],
      "name": "token",
      "outputs": [
        {
          "internalType": "contract CrowdoeToken",
          "name": "",
          "type": "address"
        }
      ],
      "stateMutability": "view",
      "type": "function"
    },
    {
      "inputs": [
        {
          "internalType": "address",
          "name": "newOwner",
          "type": "address"
        }
      ],
      "name": "transferOwnership",
      "outputs": [],
      "stateMutability": "nonpayable",
      "type": "function"
    }
  ],
  "bytecode": "0x608060405234801561001057600080fd5b50604051610bbc380380610bbc83398181016040528101906100329190610237565b7303f7edd3c39d5a0e8c9189f7fbf2eaf4ce49ef10600073ffffffffffffffffffffffffffffffffffffffff168173ffffffffffffffffffffffffffffffffffffffff16036100b95760006040517f1e4fbdf70000000000000000000000000000000000000000000000000000000081526004016100b09190610273565b60405180910390fd5b6100c88161011060201b60201c565b5080600160006101000a81548173ffffffffffffffffffffffffffffffffffffffff021916908373ffffffffffffffffffffffffffffffffffffffff1602179055505061028e565b60008060009054906101000a900473ffffffffffffffffffffffffffffffffffffffff169050816000806101000a81548173ffffffffffffffffffffffffffffffffffffffff021916908373ffffffffffffffffffffffffffffffffffffffff1602179055508173ffffffffffffffffffffffffffffffffffffffff168173ffffffffffffffffffffffffffffffffffffffff167f8be0079c531659141344cd1fd0a4f28419497f9722a3daafe3b4186f6b6457e060405160405180910390a35050565b600080fd5b600073ffffffffffffffffffffffffffffffffffffffff82169050919050565b6000610204826101d9565b9050919050565b610214816101f9565b811461021f57600080fd5b50565b6000815190506102318161020b565b92915050565b60006020828403121561024d5761024c6101d4565b5b600061025b84828501610222565b91505092915050565b61026d816101f9565b82525050565b60006020820190506102886000830184610264565b92915050565b61091f8061029d6000396000f3fe608060405234801561001057600080fd5b50600436106100575760003560e01c80634131a3af1461005c578063715018a6146100785780638da5cb5b14610082578063f2fde38b146100a0578063fc0c546a146100bc575b600080fd5b610076600480360381019061007191906105af565b6100da565b005b610080610219565b005b61008a61022d565b6040516100979190610639565b60405180910390f35b6100ba60048036038101906100b59190610680565b610256565b005b6100c46102dc565b6040516100d1919061070c565b60405180910390f35b600081511161011e576040517f08c379a000000000000000000000000000000000000000000000000000000000815260040161011590610784565b60405180910390fd5b600060149050600160009054906101000a900473ffffffffffffffffffffffffffffffffffffffff1673ffffffffffffffffffffffffffffffffffffffff1663a9059cbb33836040518363ffffffff1660e01b81526004016101819291906107bd565b6020604051808303816000875af11580156101a0573d6000803e3d6000fd5b505050506040513d601f19601f820116820180604052508101906101c4919061081e565b503373ffffffffffffffffffffffffffffffffffffffff167ffc0bd330f017f9e1af8eb8378dbc9a1a20e2e2e643c7eb9b3d3013352d06657f838360405161020d9291906108b9565b60405180910390a25050565b610221610302565b61022b6000610389565b565b60008060009054906101000a900473ffffffffffffffffffffffffffffffffffffffff16905090565b61025e610302565b600073ffffffffffffffffffffffffffffffffffffffff168173ffffffffffffffffffffffffffffffffffffffff16036102d05760006040517f1e4fbdf70000000000000000000000000000000000000000000000000000000081526004016102c79190610639565b60405180910390fd5b6102d981610389565b50565b600160009054906101000a900473ffffffffffffffffffffffffffffffffffffffff1681565b61030a61044d565b73ffffffffffffffffffffffffffffffffffffffff1661032861022d565b73ffffffffffffffffffffffffffffffffffffffff16146103875761034b61044d565b6040517f118cdaa700000000000000000000000000000000000000000000000000000000815260040161037e9190610639565b60405180910390fd5b565b60008060009054906101000a900473ffffffffffffffffffffffffffffffffffffffff169050816000806101000a81548173ffffffffffffffffffffffffffffffffffffffff021916908373ffffffffffffffffffffffffffffffffffffffff1602179055508173ffffffffffffffffffffffffffffffffffffffff168173ffffffffffffffffffffffffffffffffffffffff167f8be0079c531659141344cd1fd0a4f28419497f9722a3daafe3b4186f6b6457e060405160405180910390a35050565b600033905090565b6000604051905090565b600080fd5b600080fd5b600080fd5b600080fd5b6000601f19601f8301169050919050565b7f4e487b7100000000000000000000000000000000000000000000000000000000600052604160045260246000fd5b6104bc82610473565b810181811067ffffffffffffffff821117156104db576104da610484565b5b80604052505050565b60006104ee610455565b90506104fa82826104b3565b919050565b600067ffffffffffffffff82111561051a57610519610484565b5b61052382610473565b9050602081019050919050565b82818337600083830152505050565b600061055261054d846104ff565b6104e4565b90508281526020810184848401111561056e5761056d61046e565b5b610579848285610530565b509392505050565b600082601f83011261059657610595610469565b5b81356105a684826020860161053f565b91505092915050565b6000602082840312156105c5576105c461045f565b5b600082013567ffffffffffffffff8111156105e3576105e2610464565b5b6105ef84828501610581565b91505092915050565b600073ffffffffffffffffffffffffffffffffffffffff82169050919050565b6000610623826105f8565b9050919050565b61063381610618565b82525050565b600060208201905061064e600083018461062a565b92915050565b61065d81610618565b811461066857600080fd5b50565b60008135905061067a81610654565b92915050565b6000602082840312156106965761069561045f565b5b60006106a48482850161066b565b91505092915050565b6000819050919050565b60006106d26106cd6106c8846105f8565b6106ad565b6105f8565b9050919050565b60006106e4826106b7565b9050919050565b60006106f6826106d9565b9050919050565b610706816106eb565b82525050565b600060208201905061072160008301846106fd565b92915050565b600082825260208201905092915050565b7f4950465320686173682063616e6e6f7420626520656d70747900000000000000600082015250565b600061076e601983610727565b915061077982610738565b602082019050919050565b6000602082019050818103600083015261079d81610761565b9050919050565b6000819050919050565b6107b7816107a4565b82525050565b60006040820190506107d2600083018561062a565b6107df60208301846107ae565b9392505050565b60008115159050919050565b6107fb816107e6565b811461080657600080fd5b50565b600081519050610818816107f2565b92915050565b6000602082840312156108345761083361045f565b5b600061084284828501610809565b91505092915050565b600081519050919050565b60005b83811015610874578082015181840152602081019050610859565b60008484015250505050565b600061088b8261084b565b6108958185610727565b93506108a5818560208601610856565b6108ae81610473565b840191505092915050565b600060408201905081810360008301526108d38185610880565b90506108e260208301846107ae565b939250505056fea26469706673582212207f92d7e25a9dbe7507201b91acd925c6a19f3fe5b1a1d4546d71b9766eafd30c64736f6c63430008140033",
  "linkReferences": {},
  "deployedLinkReferences": {}
}