{
  "_format": "hh-sol-artifact-1",
  "contractName": "ReviewToken",
  "sourceName": "contracts/Crowdoe.sol",
  "abi": [
    {
      "inputs": [
        {
          "internalType": "address",
          "name": "_tokenAddress",
          "type": "address"
        }
      ],
      "stateMutability": "nonpayable",
      "type": "constructor"
    },
    {
      "inputs": [
        {
          "internalType": "address",
          "name": "owner",
          "type": "address"
        }
      ],
      "name": "OwnableInvalidOwner",
      "type": "error"
    },
    {
      "inputs": [
        {
          "internalType": "address",
          "name": "account",
          "type": "address"
        }
      ],
      "name": "OwnableUnauthorizedAccount",
      "type": "error"
    },
    {
      "anonymous": false,
      "inputs": [
        {
          "indexed": true,
          "internalType": "address",
          "name": "previousOwner",
          "type": "address"
        },
        {
          "indexed": true,
          "internalType": "address",
          "name": "newOwner",
          "type": "address"
        }
      ],
      "name": "OwnershipTransferred",
      "type": "event"
    },
    {
      "anonymous": false,
      "inputs": [
        {
          "indexed": true,
          "internalType": "address",
          "name": "reviewer",
          "type": "address"
        },
        {
          "indexed": false,
          "internalType": "string",
          "name": "review",
          "type": "string"
        },
        {
          "indexed": false,
          "internalType": "uint256",
          "name": "tokensEarned",
          "type": "uint256"
        }
      ],
      "name": "ReviewSubmitted",
      "type": "event"
    },
    {
      "inputs": [],
      "name": "owner",
      "outputs": [
        {
          "internalType": "address",
          "name": "",
          "type": "address"
        }
      ],
      "stateMutability": "view",
      "type": "function"
    },
    {
      "inputs": [],
      "name": "renounceOwnership",
      "outputs": [],
      "stateMutability": "nonpayable",
      "type": "function"
    },
    {
      "inputs": [
        {
          "internalType": "string",
          "name": "_review",
          "type": "string"
        }
      ],
      "name": "submitReview",
      "outputs": [],
      "stateMutability": "nonpayable",
      "type": "function"
    },
    {
      "inputs": [],
      "name": "token",
      "outputs": [
        {
          "internalType": "contract CrowdoeToken",
          "name": "",
          "type": "address"
        }
      ],
      "stateMutability": "view",
      "type": "function"
    },
    {
      "inputs": [
        {
          "internalType": "address",
          "name": "newOwner",
          "type": "address"
        }
      ],
      "name": "transferOwnership",
      "outputs": [],
      "stateMutability": "nonpayable",
      "type": "function"
    },
    {
      "inputs": [
        {
          "internalType": "address",
          "name": "_token",
          "type": "address"
        },
        {
          "internalType": "address",
          "name": "_to",
          "type": "address"
        },
        {
          "internalType": "uint256",
          "name": "_amount",
          "type": "uint256"
        }
      ],
      "name": "withdrawTokens",
      "outputs": [],
      "stateMutability": "nonpayable",
      "type": "function"
    }
  ],
  "bytecode": "0x60806040523480156200001157600080fd5b5060405162000d2c38038062000d2c833981810160405281019062000037919062000249565b7303f7edd3c39d5a0e8c9189f7fbf2eaf4ce49ef10600073ffffffffffffffffffffffffffffffffffffffff168173ffffffffffffffffffffffffffffffffffffffff1603620000c15760006040517f1e4fbdf7000000000000000000000000000000000000000000000000000000008152600401620000b891906200028c565b60405180910390fd5b620000d2816200011b60201b60201c565b5080600160006101000a81548173ffffffffffffffffffffffffffffffffffffffff021916908373ffffffffffffffffffffffffffffffffffffffff16021790555050620002a9565b60008060009054906101000a900473ffffffffffffffffffffffffffffffffffffffff169050816000806101000a81548173ffffffffffffffffffffffffffffffffffffffff021916908373ffffffffffffffffffffffffffffffffffffffff1602179055508173ffffffffffffffffffffffffffffffffffffffff168173ffffffffffffffffffffffffffffffffffffffff167f8be0079c531659141344cd1fd0a4f28419497f9722a3daafe3b4186f6b6457e060405160405180910390a35050565b600080fd5b600073ffffffffffffffffffffffffffffffffffffffff82169050919050565b60006200021182620001e4565b9050919050565b620002238162000204565b81146200022f57600080fd5b50565b600081519050620002438162000218565b92915050565b600060208284031215620002625762000261620001df565b5b6000620002728482850162000232565b91505092915050565b620002868162000204565b82525050565b6000602082019050620002a360008301846200027b565b92915050565b610a7380620002b96000396000f3fe608060405234801561001057600080fd5b50600436106100625760003560e01c80635e35359e146100675780636604b72214610083578063715018a61461009f5780638da5cb5b146100a9578063f2fde38b146100c7578063fc0c546a146100e3575b600080fd5b610081600480360381019061007c91906105d2565b610101565b005b61009d6004803603810190610098919061076b565b6101af565b005b6100a76102ee565b005b6100b1610302565b6040516100be91906107c3565b60405180910390f35b6100e160048036038101906100dc91906107de565b61032b565b005b6100eb6103b1565b6040516100f8919061086a565b60405180910390f35b6101096103d7565b600160009054906101000a900473ffffffffffffffffffffffffffffffffffffffff1673ffffffffffffffffffffffffffffffffffffffff1663a9059cbb83836040518363ffffffff1660e01b8152600401610166929190610894565b6020604051808303816000875af1158015610185573d6000803e3d6000fd5b505050506040513d601f19601f820116820180604052508101906101a991906108f5565b50505050565b60008151116101f3576040517f08c379a00000000000000000000000000000000000000000000000000000000081526004016101ea9061097f565b60405180910390fd5b6000600a9050600160009054906101000a900473ffffffffffffffffffffffffffffffffffffffff1673ffffffffffffffffffffffffffffffffffffffff1663a9059cbb33836040518363ffffffff1660e01b8152600401610256929190610894565b6020604051808303816000875af1158015610275573d6000803e3d6000fd5b505050506040513d601f19601f8201168201806040525081019061029991906108f5565b503373ffffffffffffffffffffffffffffffffffffffff167ffc0bd330f017f9e1af8eb8378dbc9a1a20e2e2e643c7eb9b3d3013352d06657f83836040516102e2929190610a0d565b60405180910390a25050565b6102f66103d7565b610300600061045e565b565b60008060009054906101000a900473ffffffffffffffffffffffffffffffffffffffff16905090565b6103336103d7565b600073ffffffffffffffffffffffffffffffffffffffff168173ffffffffffffffffffffffffffffffffffffffff16036103a55760006040517f1e4fbdf700000000000000000000000000000000000000000000000000000000815260040161039c91906107c3565b60405180910390fd5b6103ae8161045e565b50565b600160009054906101000a900473ffffffffffffffffffffffffffffffffffffffff1681565b6103df610522565b73ffffffffffffffffffffffffffffffffffffffff166103fd610302565b73ffffffffffffffffffffffffffffffffffffffff161461045c57610420610522565b6040517f118cdaa700000000000000000000000000000000000000000000000000000000815260040161045391906107c3565b60405180910390fd5b565b60008060009054906101000a900473ffffffffffffffffffffffffffffffffffffffff169050816000806101000a81548173ffffffffffffffffffffffffffffffffffffffff021916908373ffffffffffffffffffffffffffffffffffffffff1602179055508173ffffffffffffffffffffffffffffffffffffffff168173ffffffffffffffffffffffffffffffffffffffff167f8be0079c531659141344cd1fd0a4f28419497f9722a3daafe3b4186f6b6457e060405160405180910390a35050565b600033905090565b6000604051905090565b600080fd5b600080fd5b600073ffffffffffffffffffffffffffffffffffffffff82169050919050565b60006105698261053e565b9050919050565b6105798161055e565b811461058457600080fd5b50565b60008135905061059681610570565b92915050565b6000819050919050565b6105af8161059c565b81146105ba57600080fd5b50565b6000813590506105cc816105a6565b92915050565b6000806000606084860312156105eb576105ea610534565b5b60006105f986828701610587565b935050602061060a86828701610587565b925050604061061b868287016105bd565b9150509250925092565b600080fd5b600080fd5b6000601f19601f8301169050919050565b7f4e487b7100000000000000000000000000000000000000000000000000000000600052604160045260246000fd5b6106788261062f565b810181811067ffffffffffffffff8211171561069757610696610640565b5b80604052505050565b60006106aa61052a565b90506106b6828261066f565b919050565b600067ffffffffffffffff8211156106d6576106d5610640565b5b6106df8261062f565b9050602081019050919050565b82818337600083830152505050565b600061070e610709846106bb565b6106a0565b90508281526020810184848401111561072a5761072961062a565b5b6107358482856106ec565b509392505050565b600082601f83011261075257610751610625565b5b81356107628482602086016106fb565b91505092915050565b60006020828403121561078157610780610534565b5b600082013567ffffffffffffffff81111561079f5761079e610539565b5b6107ab8482850161073d565b91505092915050565b6107bd8161055e565b82525050565b60006020820190506107d860008301846107b4565b92915050565b6000602082840312156107f4576107f3610534565b5b600061080284828501610587565b91505092915050565b6000819050919050565b600061083061082b6108268461053e565b61080b565b61053e565b9050919050565b600061084282610815565b9050919050565b600061085482610837565b9050919050565b61086481610849565b82525050565b600060208201905061087f600083018461085b565b92915050565b61088e8161059c565b82525050565b60006040820190506108a960008301856107b4565b6108b66020830184610885565b9392505050565b60008115159050919050565b6108d2816108bd565b81146108dd57600080fd5b50565b6000815190506108ef816108c9565b92915050565b60006020828403121561090b5761090a610534565b5b6000610919848285016108e0565b91505092915050565b600082825260208201905092915050565b7f5265766965772063616e6e6f7420626520656d70747900000000000000000000600082015250565b6000610969601683610922565b915061097482610933565b602082019050919050565b600060208201905081810360008301526109988161095c565b9050919050565b600081519050919050565b60005b838110156109c85780820151818401526020810190506109ad565b60008484015250505050565b60006109df8261099f565b6109e98185610922565b93506109f98185602086016109aa565b610a028161062f565b840191505092915050565b60006040820190508181036000830152610a2781856109d4565b9050610a366020830184610885565b939250505056fea2646970667358221220d2159ff278dc0e4bca845528dfded511cc19164f259f62f175a9471d10c88fb464736f6c63430008140033",
  "linkReferences": {},
  "deployedLinkReferences": {}
}